{
  "contractName": "Event",
  "abi": [
    {
      "inputs": [
        {
          "internalType": "address",
          "name": "eoa",
          "type": "address"
        },
        {
          "internalType": "string",
          "name": "_image",
          "type": "string"
        },
        {
          "internalType": "string",
          "name": "_title",
          "type": "string"
        },
        {
          "internalType": "string",
          "name": "_description",
          "type": "string"
        },
        {
          "internalType": "string",
          "name": "_location",
          "type": "string"
        },
        {
          "internalType": "uint256",
          "name": "_ticketPrice",
          "type": "uint256"
        },
        {
          "internalType": "uint256",
          "name": "_startDateOffset",
          "type": "uint256"
        },
        {
          "internalType": "uint256",
          "name": "_endDateOffset",
          "type": "uint256"
        },
        {
          "internalType": "uint256",
          "name": "_votingPeriodOffset",
          "type": "uint256"
        }
      ],
      "stateMutability": "nonpayable",
      "type": "constructor"
    },
    {
      "anonymous": false,
      "inputs": [
        {
          "indexed": false,
          "internalType": "bool",
          "name": "_isCanceled",
          "type": "bool"
        }
      ],
      "name": "CancelEvent",
      "type": "event"
    },
    {
      "anonymous": false,
      "inputs": [
        {
          "indexed": false,
          "internalType": "address",
          "name": "_sender",
          "type": "address"
        },
        {
          "indexed": false,
          "internalType": "uint256",
          "name": "_value",
          "type": "uint256"
        }
      ],
      "name": "GetPaymentEvent",
      "type": "event"
    },
    {
      "anonymous": false,
      "inputs": [
        {
          "indexed": false,
          "internalType": "address",
          "name": "_sender",
          "type": "address"
        },
        {
          "indexed": false,
          "internalType": "uint256",
          "name": "_value",
          "type": "uint256"
        }
      ],
      "name": "GetRefundEvent",
      "type": "event"
    },
    {
      "anonymous": false,
      "inputs": [
        {
          "indexed": false,
          "internalType": "address",
          "name": "_sender",
          "type": "address"
        },
        {
          "indexed": false,
          "internalType": "uint256",
          "name": "_value",
          "type": "uint256"
        }
      ],
      "name": "PurchaseTicketEvent",
      "type": "event"
    },
    {
      "anonymous": false,
      "inputs": [
        {
          "indexed": false,
          "internalType": "address",
          "name": "_sender",
          "type": "address"
        },
        {
          "indexed": false,
          "internalType": "bool",
          "name": "_isValidEvent",
          "type": "bool"
        },
        {
          "indexed": false,
          "internalType": "uint256",
          "name": "_numOfValidVotes",
          "type": "uint256"
        },
        {
          "indexed": false,
          "internalType": "uint256",
          "name": "_numOfInvalidVotes",
          "type": "uint256"
        },
        {
          "indexed": false,
          "internalType": "uint256",
          "name": "_numParticipants",
          "type": "uint256"
        }
      ],
      "name": "VoteEvent",
      "type": "event"
    },
    {
      "inputs": [],
      "name": "coordinator",
      "outputs": [
        {
          "internalType": "address payable",
          "name": "",
          "type": "address"
        }
      ],
      "stateMutability": "view",
      "type": "function"
    },
    {
      "inputs": [],
      "name": "description",
      "outputs": [
        {
          "internalType": "string",
          "name": "",
          "type": "string"
        }
      ],
      "stateMutability": "view",
      "type": "function"
    },
    {
      "inputs": [],
      "name": "endDate",
      "outputs": [
        {
          "internalType": "uint256",
          "name": "",
          "type": "uint256"
        }
      ],
      "stateMutability": "view",
      "type": "function"
    },
    {
      "inputs": [],
      "name": "image",
      "outputs": [
        {
          "internalType": "string",
          "name": "",
          "type": "string"
        }
      ],
      "stateMutability": "view",
      "type": "function"
    },
    {
      "inputs": [],
      "name": "isCanceled",
      "outputs": [
        {
          "internalType": "bool",
          "name": "",
          "type": "bool"
        }
      ],
      "stateMutability": "view",
      "type": "function"
    },
    {
      "inputs": [],
      "name": "isInvalidAndVoted",
      "outputs": [
        {
          "internalType": "bool",
          "name": "",
          "type": "bool"
        }
      ],
      "stateMutability": "view",
      "type": "function"
    },
    {
      "inputs": [],
      "name": "isValid",
      "outputs": [
        {
          "internalType": "bool",
          "name": "",
          "type": "bool"
        }
      ],
      "stateMutability": "view",
      "type": "function"
    },
    {
      "inputs": [],
      "name": "location",
      "outputs": [
        {
          "internalType": "string",
          "name": "",
          "type": "string"
        }
      ],
      "stateMutability": "view",
      "type": "function"
    },
    {
      "inputs": [],
      "name": "numOfInvalidVotes",
      "outputs": [
        {
          "internalType": "uint256",
          "name": "",
          "type": "uint256"
        }
      ],
      "stateMutability": "view",
      "type": "function"
    },
    {
      "inputs": [],
      "name": "numOfValidVotes",
      "outputs": [
        {
          "internalType": "uint256",
          "name": "",
          "type": "uint256"
        }
      ],
      "stateMutability": "view",
      "type": "function"
    },
    {
      "inputs": [],
      "name": "numParticipants",
      "outputs": [
        {
          "internalType": "uint256",
          "name": "",
          "type": "uint256"
        }
      ],
      "stateMutability": "view",
      "type": "function"
    },
    {
      "inputs": [
        {
          "internalType": "address",
          "name": "",
          "type": "address"
        }
      ],
      "name": "participantVote",
      "outputs": [
        {
          "internalType": "bool",
          "name": "",
          "type": "bool"
        }
      ],
      "stateMutability": "view",
      "type": "function"
    },
    {
      "inputs": [
        {
          "internalType": "address",
          "name": "",
          "type": "address"
        }
      ],
      "name": "participants",
      "outputs": [
        {
          "internalType": "uint256",
          "name": "",
          "type": "uint256"
        }
      ],
      "stateMutability": "view",
      "type": "function"
    },
    {
      "inputs": [
        {
          "internalType": "uint256",
          "name": "",
          "type": "uint256"
        }
      ],
      "name": "participantsAddr",
      "outputs": [
        {
          "internalType": "address",
          "name": "",
          "type": "address"
        }
      ],
      "stateMutability": "view",
      "type": "function"
    },
    {
      "inputs": [],
      "name": "startDate",
      "outputs": [
        {
          "internalType": "uint256",
          "name": "",
          "type": "uint256"
        }
      ],
      "stateMutability": "view",
      "type": "function"
    },
    {
      "inputs": [],
      "name": "ticketPrice",
      "outputs": [
        {
          "internalType": "uint256",
          "name": "",
          "type": "uint256"
        }
      ],
      "stateMutability": "view",
      "type": "function"
    },
    {
      "inputs": [],
      "name": "title",
      "outputs": [
        {
          "internalType": "string",
          "name": "",
          "type": "string"
        }
      ],
      "stateMutability": "view",
      "type": "function"
    },
    {
      "inputs": [],
      "name": "votingPeriodOffset",
      "outputs": [
        {
          "internalType": "uint256",
          "name": "",
          "type": "uint256"
        }
      ],
      "stateMutability": "view",
      "type": "function"
    },
    {
      "stateMutability": "payable",
      "type": "receive"
    },
    {
      "inputs": [],
      "name": "purchaseTicket",
      "outputs": [],
      "stateMutability": "payable",
      "type": "function"
    },
    {
      "inputs": [],
      "name": "getRefund",
      "outputs": [],
      "stateMutability": "nonpayable",
      "type": "function"
    },
    {
      "inputs": [
        {
          "internalType": "bool",
          "name": "isValidEvent",
          "type": "bool"
        }
      ],
      "name": "vote",
      "outputs": [],
      "stateMutability": "nonpayable",
      "type": "function"
    },
    {
      "inputs": [],
      "name": "getPayment",
      "outputs": [],
      "stateMutability": "nonpayable",
      "type": "function"
    },
    {
      "inputs": [],
      "name": "cancelEvent",
      "outputs": [],
      "stateMutability": "nonpayable",
      "type": "function"
    },
    {
      "inputs": [],
      "name": "getBalance",
      "outputs": [
        {
          "internalType": "uint256",
          "name": "",
          "type": "uint256"
        }
      ],
      "stateMutability": "view",
      "type": "function"
    },
    {
      "inputs": [],
      "name": "returnEventDetails",
      "outputs": [
        {
          "internalType": "string",
          "name": "_image",
          "type": "string"
        },
        {
          "internalType": "string",
          "name": "_title",
          "type": "string"
        },
        {
          "internalType": "string",
          "name": "_description",
          "type": "string"
        },
        {
          "internalType": "string",
          "name": "_location",
          "type": "string"
        },
        {
          "internalType": "uint256",
          "name": "_ticketPrice",
          "type": "uint256"
        },
        {
          "internalType": "uint256",
          "name": "_startDateOffset",
          "type": "uint256"
        },
        {
          "internalType": "uint256",
          "name": "_endDateOffset",
          "type": "uint256"
        },
        {
          "internalType": "address",
          "name": "_coordinator",
          "type": "address"
        },
        {
          "internalType": "uint256",
          "name": "_votingPeriodOffset",
          "type": "uint256"
        }
      ],
      "stateMutability": "view",
      "type": "function"
    },
    {
      "inputs": [],
      "name": "getRole",
      "outputs": [
        {
          "internalType": "address",
          "name": "_user",
          "type": "address"
        },
        {
          "internalType": "bool",
          "name": "_isCoordinator",
          "type": "bool"
        },
        {
          "internalType": "bool",
          "name": "_isParticipant",
          "type": "bool"
        }
      ],
      "stateMutability": "view",
      "type": "function"
    },
    {
      "inputs": [],
      "name": "getEventState",
      "outputs": [
        {
          "internalType": "bool",
          "name": "_isValid",
          "type": "bool"
        },
        {
          "internalType": "bool",
          "name": "_isCanceled",
          "type": "bool"
        },
        {
          "internalType": "bool",
          "name": "_isInvalidAndVoted",
          "type": "bool"
        }
      ],
      "stateMutability": "view",
      "type": "function"
    }
  ],
  "bytecode": "0x60806040523480156200001157600080fd5b5060405162002f5a38038062002f5a8339818101604052810190620000379190620002b5565b8282116200007c576040517f08c379a0000000000000000000000000000000000000000000000000000000008152600401620000739062000419565b60405180910390fd5b886000806101000a81548173ffffffffffffffffffffffffffffffffffffffff021916908373ffffffffffffffffffffffffffffffffffffffff1602179055508760049080519060200190620000d492919062000165565b508660059080519060200190620000ed92919062000165565b5085600690805190602001906200010692919062000165565b5084600790805190602001906200011f92919062000165565b50836008819055508242620001359190620004ab565b6009819055508142620001499190620004ab565b600a8190555080600e8190555050505050505050505062000709565b82805462000173906200057c565b90600052602060002090601f016020900481019282620001975760008555620001e3565b82601f10620001b257805160ff1916838001178555620001e3565b82800160010185558215620001e3579182015b82811115620001e2578251825591602001919060010190620001c5565b5b509050620001f29190620001f6565b5090565b5b8082111562000211576000816000905550600101620001f7565b5090565b60006200022c620002268462000464565b6200043b565b9050828152602081018484840111156200024557600080fd5b6200025284828562000546565b509392505050565b6000815190506200026b81620006d5565b92915050565b600082601f8301126200028357600080fd5b81516200029584826020860162000215565b91505092915050565b600081519050620002af81620006ef565b92915050565b60008060008060008060008060006101208a8c031215620002d557600080fd5b6000620002e58c828d016200025a565b99505060208a015167ffffffffffffffff8111156200030357600080fd5b620003118c828d0162000271565b98505060408a015167ffffffffffffffff8111156200032f57600080fd5b6200033d8c828d0162000271565b97505060608a015167ffffffffffffffff8111156200035b57600080fd5b620003698c828d0162000271565b96505060808a015167ffffffffffffffff8111156200038757600080fd5b620003958c828d0162000271565b95505060a0620003a88c828d016200029e565b94505060c0620003bb8c828d016200029e565b93505060e0620003ce8c828d016200029e565b925050610100620003e28c828d016200029e565b9150509295985092959850929598565b6000620004016024836200049a565b91506200040e8262000686565b604082019050919050565b600060208201905081810360008301526200043481620003f2565b9050919050565b6000620004476200045a565b9050620004558282620005b2565b919050565b6000604051905090565b600067ffffffffffffffff82111562000482576200048162000646565b5b6200048d8262000675565b9050602081019050919050565b600082825260208201905092915050565b6000620004b8826200053c565b9150620004c5836200053c565b9250827fffffffffffffffffffffffffffffffffffffffffffffffffffffffffffffffff03821115620004fd57620004fc620005e8565b5b828201905092915050565b600062000515826200051c565b9050919050565b600073ffffffffffffffffffffffffffffffffffffffff82169050919050565b6000819050919050565b60005b838110156200056657808201518184015260208101905062000549565b8381111562000576576000848401525b50505050565b600060028204905060018216806200059557607f821691505b60208210811415620005ac57620005ab62000617565b5b50919050565b620005bd8262000675565b810181811067ffffffffffffffff82111715620005df57620005de62000646565b5b80604052505050565b7f4e487b7100000000000000000000000000000000000000000000000000000000600052601160045260246000fd5b7f4e487b7100000000000000000000000000000000000000000000000000000000600052602260045260246000fd5b7f4e487b7100000000000000000000000000000000000000000000000000000000600052604160045260246000fd5b6000601f19601f8301169050919050565b7f456e6420646174652073686f756c64206265206166746572207374617274206460008201527f6174652100000000000000000000000000000000000000000000000000000000602082015250565b620006e08162000508565b8114620006ec57600080fd5b50565b620006fa816200053c565b81146200070657600080fd5b50565b61284180620007196000396000f3fe6080604052600436106101a05760003560e01c8063652c4b3d116100ec578063c24a0f8b1161008a578063f3ccaac011610064578063f3ccaac014610584578063f7507901146105af578063fb6c9537146105dc578063fde08174146105f3576101af565b8063c24a0f8b146104f1578063c950fed01461051c578063dfbeedbe14610547576101af565b80638a56c5a4116100c65780638a56c5a414610465578063b2d5ae4414610498578063bb328a7d146104af578063bb5d40eb146104c6576101af565b8063652c4b3d146103d25780637284e416146103fd578063855cf85714610428576101af565b80631209b1f6116101595780634a79d50c116101335780634a79d50c146103285780634b9f5c98146103535780634e76a8461461037c578063516f279e146103a7576101af565b80631209b1f6146102c857806321846c76146102f357806336723c70146102fd576101af565b806306cf4116146101b457806309e69ede146101df5780630a0090971461021c5780630b97bc86146102475780630ed5a9331461027257806312065fe01461029d576101af565b366101af576101ad610620565b005b600080fd5b3480156101c057600080fd5b506101c96109bc565b6040516101d6919061221d565b60405180910390f35b3480156101eb57600080fd5b5061020660048036038101906102019190611bc0565b6109c2565b604051610213919061221d565b60405180910390f35b34801561022857600080fd5b506102316109da565b60405161023e9190611e92565b60405180910390f35b34801561025357600080fd5b5061025c6109fe565b604051610269919061221d565b60405180910390f35b34801561027e57600080fd5b50610287610a04565b6040516102949190611f60565b60405180910390f35b3480156102a957600080fd5b506102b2610a17565b6040516102bf919061221d565b60405180910390f35b3480156102d457600080fd5b506102dd610a1f565b6040516102ea919061221d565b60405180910390f35b6102fb610620565b005b34801561030957600080fd5b50610312610a25565b60405161031f919061221d565b60405180910390f35b34801561033457600080fd5b5061033d610a2b565b60405161034a9190611fb2565b60405180910390f35b34801561035f57600080fd5b5061037a60048036038101906103759190611be9565b610ab9565b005b34801561038857600080fd5b50610391610e8b565b60405161039e919061221d565b60405180910390f35b3480156103b357600080fd5b506103bc610e91565b6040516103c99190611fb2565b60405180910390f35b3480156103de57600080fd5b506103e7610f1f565b6040516103f49190611f60565b60405180910390f35b34801561040957600080fd5b50610412610f32565b60405161041f9190611fb2565b60405180910390f35b34801561043457600080fd5b5061044f600480360381019061044a9190611c12565b610fc0565b60405161045c9190611e77565b60405180910390f35b34801561047157600080fd5b5061047a610fff565b60405161048f99989796959493929190611fd4565b60405180910390f35b3480156104a457600080fd5b506104ad61129c565b005b3480156104bb57600080fd5b506104c46114b1565b005b3480156104d257600080fd5b506104db611828565b6040516104e89190611f60565b60405180910390f35b3480156104fd57600080fd5b5061050661183b565b604051610513919061221d565b60405180910390f35b34801561052857600080fd5b50610531611841565b60405161053e919061221d565b60405180910390f35b34801561055357600080fd5b5061056e60048036038101906105699190611bc0565b611847565b60405161057b9190611f60565b60405180910390f35b34801561059057600080fd5b50610599611867565b6040516105a69190611fb2565b60405180910390f35b3480156105bb57600080fd5b506105c46118f5565b6040516105d393929190611f7b565b60405180910390f35b3480156105e857600080fd5b506105f1611935565b005b3480156105ff57600080fd5b50610608611ac0565b60405161061793929190611ead565b60405180910390f35b60008054906101000a900473ffffffffffffffffffffffffffffffffffffffff1673ffffffffffffffffffffffffffffffffffffffff163373ffffffffffffffffffffffffffffffffffffffff1614156106af576040517f08c379a00000000000000000000000000000000000000000000000000000000081526004016106a69061219d565b60405180910390fd5b60095442106106f3576040517f08c379a00000000000000000000000000000000000000000000000000000000081526004016106ea9061215d565b60405180910390fd5b60001515600f60029054906101000a900460ff16151514610749576040517f08c379a00000000000000000000000000000000000000000000000000000000081526004016107409061211d565b60405180910390fd5b600854341461078d576040517f08c379a0000000000000000000000000000000000000000000000000000000008152600401610784906121bd565b60405180910390fd5b6000600160003373ffffffffffffffffffffffffffffffffffffffff1673ffffffffffffffffffffffffffffffffffffffff168152602001908152602001600020541461080f576040517f08c379a00000000000000000000000000000000000000000000000000000000081526004016108069061213d565b60405180910390fd5b6000600160003373ffffffffffffffffffffffffffffffffffffffff1673ffffffffffffffffffffffffffffffffffffffff168152602001908152602001600020541415610870576003600081548092919061086a9061239a565b91905055505b34600160003373ffffffffffffffffffffffffffffffffffffffff1673ffffffffffffffffffffffffffffffffffffffff16815260200190815260200160002060008282546108bf9190612254565b925050819055506000600b60003373ffffffffffffffffffffffffffffffffffffffff1673ffffffffffffffffffffffffffffffffffffffff16815260200190815260200160002060006101000a81548160ff0219169083151502179055506002339080600181540180825580915050600190039060005260206000200160009091909190916101000a81548173ffffffffffffffffffffffffffffffffffffffff021916908373ffffffffffffffffffffffffffffffffffffffff1602179055507f1720e81e46845ae710f44d650a195a850527ce67e17b6a080d547928dd63787833346040516109b2929190611f37565b60405180910390a1565b600e5481565b60016020528060005260406000206000915090505481565b60008054906101000a900473ffffffffffffffffffffffffffffffffffffffff1681565b60095481565b600f60029054906101000a900460ff1681565b600047905090565b60085481565b600c5481565b60058054610a3890612368565b80601f0160208091040260200160405190810160405280929190818152602001828054610a6490612368565b8015610ab15780601f10610a8657610100808354040283529160200191610ab1565b820191906000526020600020905b815481529060010190602001808311610a9457829003601f168201915b505050505081565b60008054906101000a900473ffffffffffffffffffffffffffffffffffffffff1673ffffffffffffffffffffffffffffffffffffffff163373ffffffffffffffffffffffffffffffffffffffff161415610b48576040517f08c379a0000000000000000000000000000000000000000000000000000000008152600401610b3f9061219d565b60405180910390fd5b60001515600f60029054906101000a900460ff16151514610b9e576040517f08c379a0000000000000000000000000000000000000000000000000000000008152600401610b959061211d565b60405180910390fd5b600a54421015610be3576040517f08c379a0000000000000000000000000000000000000000000000000000000008152600401610bda9061217d565b60405180910390fd5b600e54600a54610bf39190612254565b421115610c35576040517f08c379a0000000000000000000000000000000000000000000000000000000008152600401610c2c906120fd565b60405180910390fd5b6000600160003373ffffffffffffffffffffffffffffffffffffffff1673ffffffffffffffffffffffffffffffffffffffff1681526020019081526020016000205411610cb7576040517f08c379a0000000000000000000000000000000000000000000000000000000008152600401610cae9061209d565b60405180910390fd5b60001515600b60003373ffffffffffffffffffffffffffffffffffffffff1673ffffffffffffffffffffffffffffffffffffffff16815260200190815260200160002060009054906101000a900460ff16151514610d4a576040517f08c379a0000000000000000000000000000000000000000000000000000000008152600401610d41906121dd565b60405180910390fd5b8015610d6d57600c6000815480929190610d639061239a565b9190505550610d86565b600d6000815480929190610d809061239a565b91905055505b6001600b60003373ffffffffffffffffffffffffffffffffffffffff1673ffffffffffffffffffffffffffffffffffffffff16815260200190815260200160002060006101000a81548160ff02191690831515021790555060006002600354610def91906122aa565b905080600c541115610e1b576001600f60006101000a81548160ff021916908315150217905550610e42565b80600d541115610e41576001600f60016101000a81548160ff0219169083151502179055505b5b7fb61dcf0b5056a509fddc85ac795762002321d6d7454fada5b5a689660b6ee43a3383600c54600d54600354604051610e7f959493929190611ee4565b60405180910390a15050565b60035481565b60078054610e9e90612368565b80601f0160208091040260200160405190810160405280929190818152602001828054610eca90612368565b8015610f175780601f10610eec57610100808354040283529160200191610f17565b820191906000526020600020905b815481529060010190602001808311610efa57829003601f168201915b505050505081565b600f60019054906101000a900460ff1681565b60068054610f3f90612368565b80601f0160208091040260200160405190810160405280929190818152602001828054610f6b90612368565b8015610fb85780601f10610f8d57610100808354040283529160200191610fb8565b820191906000526020600020905b815481529060010190602001808311610f9b57829003601f168201915b505050505081565b60028181548110610fd057600080fd5b906000526020600020016000915054906101000a900473ffffffffffffffffffffffffffffffffffffffff1681565b60608060608060008060008060006004600560066007600854600954600a5460008054906101000a900473ffffffffffffffffffffffffffffffffffffffff16600e54600a5461104f9190612254565b88805461105b90612368565b80601f016020809104026020016040519081016040528092919081815260200182805461108790612368565b80156110d45780601f106110a9576101008083540402835291602001916110d4565b820191906000526020600020905b8154815290600101906020018083116110b757829003601f168201915b505050505098508780546110e790612368565b80601f016020809104026020016040519081016040528092919081815260200182805461111390612368565b80156111605780601f1061113557610100808354040283529160200191611160565b820191906000526020600020905b81548152906001019060200180831161114357829003601f168201915b5050505050975086805461117390612368565b80601f016020809104026020016040519081016040528092919081815260200182805461119f90612368565b80156111ec5780601f106111c1576101008083540402835291602001916111ec565b820191906000526020600020905b8154815290600101906020018083116111cf57829003601f168201915b505050505096508580546111ff90612368565b80601f016020809104026020016040519081016040528092919081815260200182805461122b90612368565b80156112785780601f1061124d57610100808354040283529160200191611278565b820191906000526020600020905b81548152906001019060200180831161125b57829003601f168201915b50505050509550985098509850985098509850985098509850909192939495969798565b60008054906101000a900473ffffffffffffffffffffffffffffffffffffffff1673ffffffffffffffffffffffffffffffffffffffff163373ffffffffffffffffffffffffffffffffffffffff16141561132b576040517f08c379a00000000000000000000000000000000000000000000000000000000081526004016113229061219d565b60405180910390fd5b60011515600f60019054906101000a900460ff1615151480611360575060011515600f60029054906101000a900460ff161515145b61139f576040517f08c379a00000000000000000000000000000000000000000000000000000000081526004016113969061207d565b60405180910390fd5b60003390506000600160003373ffffffffffffffffffffffffffffffffffffffff1673ffffffffffffffffffffffffffffffffffffffff1681526020019081526020016000205490508173ffffffffffffffffffffffffffffffffffffffff166108fc829081150290604051600060405180830381858888f1935050505015801561142e573d6000803e3d6000fd5b506000600160003373ffffffffffffffffffffffffffffffffffffffff1673ffffffffffffffffffffffffffffffffffffffff168152602001908152602001600020819055507f9fb4a28623dda97d0dfe90e7dafd6babc5764f58be78dfe4b92a32248263239933826040516114a5929190611f37565b60405180910390a15050565b60008054906101000a900473ffffffffffffffffffffffffffffffffffffffff1673ffffffffffffffffffffffffffffffffffffffff163373ffffffffffffffffffffffffffffffffffffffff161461153f576040517f08c379a0000000000000000000000000000000000000000000000000000000008152600401611536906120bd565b60405180910390fd5b60001515600f60029054906101000a900460ff16151514611595576040517f08c379a000000000000000000000000000000000000000000000000000000000815260040161158c9061211d565b60405180910390fd5b60001515600f60009054906101000a900460ff161515141561164957600a544210156115f6576040517f08c379a00000000000000000000000000000000000000000000000000000000081526004016115ed9061217d565b60405180910390fd5b600e54600a546116069190612254565b421015611648576040517f08c379a000000000000000000000000000000000000000000000000000000000815260040161163f906121fd565b60405180910390fd5b5b6000600260035461165a91906122aa565b905080600c54118061167a575080600c54108015611679575080600d54105b5b156117df57600033905060005b60035481101561174b57600060016000600284815481106116d1577f4e487b7100000000000000000000000000000000000000000000000000000000600052603260045260246000fd5b9060005260206000200160009054906101000a900473ffffffffffffffffffffffffffffffffffffffff1673ffffffffffffffffffffffffffffffffffffffff1673ffffffffffffffffffffffffffffffffffffffff16815260200190815260200160002081905550806117449061239a565b9050611687565b506000611756610a17565b90508173ffffffffffffffffffffffffffffffffffffffff166108fc829081150290604051600060405180830381858888f1935050505015801561179e573d6000803e3d6000fd5b507fe4c78557eb970e2b7ecc9c948a4a476ba2e4743015afcf594e494d6aa7a13dfe33826040516117d0929190611f37565b60405180910390a15050611825565b80600d541115611824576040517f08c379a000000000000000000000000000000000000000000000000000000000815260040161181b906120dd565b60405180910390fd5b5b50565b600f60009054906101000a900460ff1681565b600a5481565b600d5481565b600b6020528060005260406000206000915054906101000a900460ff1681565b6004805461187490612368565b80601f01602080910402602001604051908101604052809291908181526020018280546118a090612368565b80156118ed5780601f106118c2576101008083540402835291602001916118ed565b820191906000526020600020905b8154815290600101906020018083116118d057829003601f168201915b505050505081565b6000806000600f60009054906101000a900460ff16600f60029054906101000a900460ff16600f60019054906101000a900460ff16925092509250909192565b60008054906101000a900473ffffffffffffffffffffffffffffffffffffffff1673ffffffffffffffffffffffffffffffffffffffff163373ffffffffffffffffffffffffffffffffffffffff16146119c3576040517f08c379a00000000000000000000000000000000000000000000000000000000081526004016119ba906120bd565b60405180910390fd5b6009544210611a07576040517f08c379a00000000000000000000000000000000000000000000000000000000081526004016119fe9061215d565b60405180910390fd5b60001515600f60029054906101000a900460ff16151514611a5d576040517f08c379a0000000000000000000000000000000000000000000000000000000008152600401611a549061211d565b60405180910390fd5b6001600f60026101000a81548160ff0219169083151502179055507f5f45443afe1fccc9f6a28628ebbe56d69f0502ce0c0f4a6ad3f5a4140de1c8b6600f60029054906101000a900460ff16604051611ab69190611f60565b60405180910390a1565b600080600080600090506000808054906101000a900473ffffffffffffffffffffffffffffffffffffffff1673ffffffffffffffffffffffffffffffffffffffff163373ffffffffffffffffffffffffffffffffffffffff161415611b2457600191505b6000600160003373ffffffffffffffffffffffffffffffffffffffff1673ffffffffffffffffffffffffffffffffffffffff168152602001908152602001600020541115611b7157600190505b3382829450945094505050909192565b600081359050611b90816127c6565b92915050565b600081359050611ba5816127dd565b92915050565b600081359050611bba816127f4565b92915050565b600060208284031215611bd257600080fd5b6000611be084828501611b81565b91505092915050565b600060208284031215611bfb57600080fd5b6000611c0984828501611b96565b91505092915050565b600060208284031215611c2457600080fd5b6000611c3284828501611bab565b91505092915050565b611c44816122ed565b82525050565b611c53816122db565b82525050565b611c62816122ff565b82525050565b6000611c7382612238565b611c7d8185612243565b9350611c8d818560208601612335565b611c9681612470565b840191505092915050565b6000611cae604083612243565b9150611cb982612481565b604082019050919050565b6000611cd1601983612243565b9150611cdc826124d0565b602082019050919050565b6000611cf4602283612243565b9150611cff826124f9565b604082019050919050565b6000611d17603e83612243565b9150611d2282612548565b604082019050919050565b6000611d3a602483612243565b9150611d4582612597565b604082019050919050565b6000611d5d602583612243565b9150611d68826125e6565b604082019050919050565b6000611d80602483612243565b9150611d8b82612635565b604082019050919050565b6000611da3601f83612243565b9150611dae82612684565b602082019050919050565b6000611dc6601d83612243565b9150611dd1826126ad565b602082019050919050565b6000611de9602483612243565b9150611df4826126d6565b604082019050919050565b6000611e0c601e83612243565b9150611e1782612725565b602082019050919050565b6000611e2f601c83612243565b9150611e3a8261274e565b602082019050919050565b6000611e52602483612243565b9150611e5d82612777565b604082019050919050565b611e718161232b565b82525050565b6000602082019050611e8c6000830184611c4a565b92915050565b6000602082019050611ea76000830184611c3b565b92915050565b6000606082019050611ec26000830186611c4a565b611ecf6020830185611c59565b611edc6040830184611c59565b949350505050565b600060a082019050611ef96000830188611c4a565b611f066020830187611c59565b611f136040830186611e68565b611f206060830185611e68565b611f2d6080830184611e68565b9695505050505050565b6000604082019050611f4c6000830185611c4a565b611f596020830184611e68565b9392505050565b6000602082019050611f756000830184611c59565b92915050565b6000606082019050611f906000830186611c59565b611f9d6020830185611c59565b611faa6040830184611c59565b949350505050565b60006020820190508181036000830152611fcc8184611c68565b905092915050565b6000610120820190508181036000830152611fef818c611c68565b90508181036020830152612003818b611c68565b90508181036040830152612017818a611c68565b9050818103606083015261202b8189611c68565b905061203a6080830188611e68565b61204760a0830187611e68565b61205460c0830186611e68565b61206160e0830185611c4a565b61206f610100830184611e68565b9a9950505050505050505050565b6000602082019050818103600083015261209681611ca1565b9050919050565b600060208201905081810360008301526120b681611cc4565b9050919050565b600060208201905081810360008301526120d681611ce7565b9050919050565b600060208201905081810360008301526120f681611d0a565b9050919050565b6000602082019050818103600083015261211681611d2d565b9050919050565b6000602082019050818103600083015261213681611d50565b9050919050565b6000602082019050818103600083015261215681611d73565b9050919050565b6000602082019050818103600083015261217681611d96565b9050919050565b6000602082019050818103600083015261219681611db9565b9050919050565b600060208201905081810360008301526121b681611ddc565b9050919050565b600060208201905081810360008301526121d681611dff565b9050919050565b600060208201905081810360008301526121f681611e22565b9050919050565b6000602082019050818103600083015261221681611e45565b9050919050565b60006020820190506122326000830184611e68565b92915050565b600081519050919050565b600082825260208201905092915050565b600061225f8261232b565b915061226a8361232b565b9250827fffffffffffffffffffffffffffffffffffffffffffffffffffffffffffffffff0382111561229f5761229e6123e3565b5b828201905092915050565b60006122b58261232b565b91506122c08361232b565b9250826122d0576122cf612412565b5b828204905092915050565b60006122e68261230b565b9050919050565b60006122f88261230b565b9050919050565b60008115159050919050565b600073ffffffffffffffffffffffffffffffffffffffff82169050919050565b6000819050919050565b60005b83811015612353578082015181840152602081019050612338565b83811115612362576000848401525b50505050565b6000600282049050600182168061238057607f821691505b6020821081141561239457612393612441565b5b50919050565b60006123a58261232b565b91507fffffffffffffffffffffffffffffffffffffffffffffffffffffffffffffffff8214156123d8576123d76123e3565b5b600182019050919050565b7f4e487b7100000000000000000000000000000000000000000000000000000000600052601160045260246000fd5b7f4e487b7100000000000000000000000000000000000000000000000000000000600052601260045260246000fd5b7f4e487b7100000000000000000000000000000000000000000000000000000000600052602260045260246000fd5b6000601f19601f8301169050919050565b7f54686973206576656e74206569746865722068617320746f2062652063616e6360008201527f656c6564206f7220696e76616c696420746f20676574206120726566756e6421602082015250565b7f54686973207573657220646f6573206e6f742065786973742100000000000000600082015250565b7f596f75206d75737420626520746865206576656e7420636f6f72696e6461746f60008201527f7221000000000000000000000000000000000000000000000000000000000000602082015250565b7f556e61626c6520746f2077697468647261772e205061727469636970616e747360008201527f206861766520766f74656420746865206576656e7420696e76616c69642e0000602082015250565b7f54686520766f74696e6720706572696f642068617320616c726561647920656e60008201527f6465642100000000000000000000000000000000000000000000000000000000602082015250565b7f54686973206576656e742068617320616c7265616479206265656e2063616e6360008201527f656c656421000000000000000000000000000000000000000000000000000000602082015250565b7f596f75206861766520616c72656164792070757263686173656420612074696360008201527f6b65742100000000000000000000000000000000000000000000000000000000602082015250565b7f54686973206576656e742068617320616c726561647920737461727465642100600082015250565b7f54686973206576656e7420686173206e6f7420656e6465642079657421000000600082015250565b7f596f752063616e6e6f7420626520746865206576656e7420636f6f7264696e6160008201527f746f722100000000000000000000000000000000000000000000000000000000602082015250565b7f596f75206d757374207061792074686520657861637420616d6f756e74210000600082015250565b7f5468697320757365722068617320616c726561647920766f7465642100000000600082015250565b7f54686520766f74696e6720706572696f6420686173206e6f7420656e6465642060008201527f7965742100000000000000000000000000000000000000000000000000000000602082015250565b6127cf816122db565b81146127da57600080fd5b50565b6127e6816122ff565b81146127f157600080fd5b50565b6127fd8161232b565b811461280857600080fd5b5056fea26469706673582212209381e4e5002d89a7e873b16b95aa46a6277e567356202327d73bf7e778f33cab64736f6c63430008040033",
  "immutableReferences": {},
  "source": "//SPDX-License-Identifier: GPL-3.0\r\n \r\npragma solidity >=0.5.0 <0.9.0;\r\n\r\ncontract EventCreator{\r\n    Event[] public events;\r\n    string public name = \"Event Creator\";\r\n    uint public eventCount = 0;\r\n\r\n    function createEvent(string memory _image, string memory _title, string memory _description, string memory _location, uint _ticketPrice, uint _startDateOffset, uint _endDateOffset, uint _votingPeriodOffset) public {\r\n        Event newEvent = new Event(msg.sender, _image, _title, _description, _location, _ticketPrice, _startDateOffset, _endDateOffset, _votingPeriodOffset);\r\n        events.push(newEvent);\r\n        ++eventCount;\r\n    }\r\n}\r\n\r\ncontract Event{\r\n    \r\n    /* State Variables */\r\n    address payable public coordinator;\r\n    \r\n    mapping(address => uint) public participants;\r\n    address[] public participantsAddr;\r\n    uint public numParticipants;\r\n    \r\n    string public image;\r\n    string public title;\r\n    string public description;\r\n    string public location;\r\n    uint public ticketPrice;\r\n    uint public startDate;\r\n    uint public endDate;\r\n\r\n    mapping(address => bool) public participantVote;\r\n    uint public numOfValidVotes;\r\n    uint public numOfInvalidVotes;\r\n    uint public votingPeriodOffset;\r\n    \r\n    bool public isValid;\r\n    bool public isInvalidAndVoted;\r\n    bool public isCanceled;\r\n    \r\n    /* Constructor */\r\n    constructor(address eoa, string memory _image, string memory _title, string memory _description, string memory _location, uint _ticketPrice, uint _startDateOffset, uint _endDateOffset, uint _votingPeriodOffset){\r\n        require(_endDateOffset > _startDateOffset, \"End date should be after start date!\"); \r\n        coordinator = payable(eoa);\r\n        image = _image;\r\n        title = _title;\r\n        description = _description;\r\n        location = _location;\r\n        ticketPrice = _ticketPrice;\r\n        startDate = block.timestamp + _startDateOffset;\r\n        endDate = block.timestamp + _endDateOffset;\r\n        votingPeriodOffset = _votingPeriodOffset;\r\n    }\r\n    \r\n    /* Events */\r\n    event PurchaseTicketEvent(address _sender, uint _value);\r\n    event GetRefundEvent(address _sender, uint _value);\r\n    event VoteEvent(address _sender, bool _isValidEvent, uint _numOfValidVotes, uint _numOfInvalidVotes, uint _numParticipants);\r\n    event GetPaymentEvent(address _sender, uint _value);\r\n    event CancelEvent(bool _isCanceled);\r\n\r\n\r\n    /* Functions */\r\n    // Participants ticket purchase\r\n    receive() payable external{\r\n        purchaseTicket();\r\n    }\r\n\r\n    function purchaseTicket() public payable notCoordinator notRunning notCanceled {\r\n        require(msg.value == ticketPrice, \"You must pay the exact amount!\");\r\n        require(participants[msg.sender] == 0, \"You have already purchased a ticket!\");\r\n        \r\n        if(participants[msg.sender] == 0){\r\n            numParticipants++;\r\n        }\r\n        \r\n        participants[msg.sender] += msg.value;\r\n        participantVote[msg.sender] = false;\r\n        participantsAddr.push(msg.sender);\r\n\r\n        emit PurchaseTicketEvent(msg.sender, msg.value);\r\n    }\r\n    \r\n    // Participants refund option\r\n    function getRefund() public notCoordinator {\r\n        require(isInvalidAndVoted == true || isCanceled == true, \"This event either has to be canceled or invalid to get a refund!\");\r\n\r\n        address payable recipient = payable(msg.sender);\r\n        uint value = participants[msg.sender];\r\n        recipient.transfer(value);\r\n        participants[msg.sender] = 0;\r\n\r\n        emit GetRefundEvent(msg.sender, value);\r\n    }\r\n\r\n    // Particpants vote on event after end date\r\n    function vote(bool isValidEvent) public notCoordinator notCanceled {\r\n        require(block.timestamp >= endDate, \"This event has not ended yet!\");\r\n        require(block.timestamp <= endDate + votingPeriodOffset, \"The voting period has already ended!\");\r\n        require(participants[msg.sender] > 0, \"This user does not exist!\");\r\n        require(participantVote[msg.sender] == false, \"This user has already voted!\");\r\n\r\n        // Update vote counter\r\n        if(isValidEvent){\r\n          numOfValidVotes++;\r\n        } else {\r\n          numOfInvalidVotes++;\r\n        }\r\n        participantVote[msg.sender] = true;\r\n\r\n        // Update event state when all votes are counted\r\n        uint halfOfParticipants = numParticipants / 2;\r\n         if (numOfValidVotes > halfOfParticipants){\r\n            isValid = true;\r\n         } else if(numOfInvalidVotes > halfOfParticipants){\r\n            isInvalidAndVoted = true;\r\n         }\r\n\r\n         emit VoteEvent(msg.sender, isValidEvent, numOfValidVotes, numOfInvalidVotes, numParticipants);\r\n    }\r\n    \r\n    // Coordinator transfer payment option\r\n    function getPayment() public isCoordinator notCanceled {\r\n        // skip enough voters have voted valid\r\n        if (isValid == false){\r\n            require(block.timestamp >= endDate, \"This event has not ended yet!\");\r\n            require(block.timestamp >= endDate + votingPeriodOffset, \"The voting period has not ended yet!\");\r\n        }\r\n        \r\n        uint halfOfParticipants = numParticipants / 2;\r\n\r\n        // more than 50% of voters vote valid OR not enough votes for either option\r\n        if(numOfValidVotes > halfOfParticipants || (numOfValidVotes < halfOfParticipants && numOfInvalidVotes < halfOfParticipants)){\r\n          address payable recipient = payable(msg.sender);\r\n          for(uint i = 0; i < numParticipants; ++i){\r\n              // reset partcipant balance to 0\r\n              participants[participantsAddr[i]] = 0;\r\n          }\r\n          uint total = getBalance();\r\n          recipient.transfer(total);\r\n          emit GetPaymentEvent(msg.sender, total);\r\n        } \r\n        // more than 50% of voters vote invalid\r\n        else if(numOfInvalidVotes > halfOfParticipants){\r\n          // unable to withdraw, show message or something \r\n          revert(\"Unable to withdraw. Participants have voted the event invalid.\");\r\n        }\r\n    }\r\n    \r\n    // Coordinator event cancellation\r\n    function cancelEvent() public isCoordinator notRunning notCanceled {\r\n        isCanceled = true;\r\n        emit CancelEvent(isCanceled);\r\n    }\r\n    \r\n    // helper - get contract's current balance\r\n    function getBalance() public view returns(uint){\r\n        return address(this).balance;\r\n    }\r\n\r\n    // helper - get event details \r\n    function returnEventDetails() public view returns(string memory _image, string memory _title, string memory _description, string memory _location, uint _ticketPrice, uint _startDateOffset, uint _endDateOffset, address _coordinator, uint _votingPeriodOffset){\r\n        return (image, title, description, location, ticketPrice, startDate, endDate, coordinator, endDate + votingPeriodOffset);\r\n    }\r\n\r\n    function getRole() public view returns(address _user, bool _isCoordinator, bool _isParticipant){\r\n        bool isCoordinator = false;\r\n        bool isParticipant = false;\r\n        if (msg.sender == coordinator) isCoordinator = true;\r\n        if (participants[msg.sender] > 0) isParticipant = true;\r\n        return (address(msg.sender), isCoordinator, isParticipant);\r\n    }\r\n\r\n    function getEventState() public view returns(bool _isValid, bool _isCanceled, bool _isInvalidAndVoted){\r\n        return (isValid, isCanceled, isInvalidAndVoted);\r\n    }\r\n    \r\n    /* Function Modifiers */\r\n    modifier isCoordinator(){\r\n        require(msg.sender == coordinator, \"You must be the event coorindator!\");\r\n        _;\r\n    }\r\n    \r\n    modifier notCoordinator(){\r\n        require(msg.sender != coordinator, \"You cannot be the event coordinator!\");\r\n        _;\r\n    }\r\n    \r\n    modifier notRunning() {\r\n        require(block.timestamp < startDate, \"This event has already started!\");\r\n        _;\r\n    }\r\n    \r\n    modifier notCanceled() {\r\n        require(isCanceled == false, \"This event has already been canceled!\");\r\n        _;\r\n    }\r\n}",
  "sourcePath": "C:\\Users\\Jonathan\\Documents\\Projects\\Coding\\decentrevent\\contracts\\EventCreator.sol",
  "compiler": {
    "name": "solc",
    "version": "0.8.4+commit.c7e474f2.Emscripten.clang"
  },
  "schemaVersion": "3.4.3",
  "updatedAt": "2021-08-28T17:59:36.691Z",
  "devdoc": {
    "kind": "dev",
    "methods": {},
    "version": 1
  },
  "userdoc": {
    "kind": "user",
    "methods": {},
    "version": 1
  }
}