{
  "contractName": "EventCreator",
  "abi": [
    {
      "inputs": [],
      "name": "eventCount",
      "outputs": [
        {
          "internalType": "uint256",
          "name": "",
          "type": "uint256"
        }
      ],
      "stateMutability": "view",
      "type": "function",
      "constant": true
    },
    {
      "inputs": [
        {
          "internalType": "uint256",
          "name": "",
          "type": "uint256"
        }
      ],
      "name": "events",
      "outputs": [
        {
          "internalType": "contract Event",
          "name": "",
          "type": "address"
        }
      ],
      "stateMutability": "view",
      "type": "function",
      "constant": true
    },
    {
      "inputs": [],
      "name": "name",
      "outputs": [
        {
          "internalType": "string",
          "name": "",
          "type": "string"
        }
      ],
      "stateMutability": "view",
      "type": "function",
      "constant": true
    },
    {
      "inputs": [
        {
          "internalType": "string",
          "name": "_image",
          "type": "string"
        },
        {
          "internalType": "string",
          "name": "_title",
          "type": "string"
        },
        {
          "internalType": "string",
          "name": "_description",
          "type": "string"
        },
        {
          "internalType": "string",
          "name": "_location",
          "type": "string"
        },
        {
          "internalType": "uint256",
          "name": "_ticketPrice",
          "type": "uint256"
        },
        {
          "internalType": "uint256",
          "name": "_startDateOffset",
          "type": "uint256"
        },
        {
          "internalType": "uint256",
          "name": "_endDateOffset",
          "type": "uint256"
        }
      ],
      "name": "createEvent",
      "outputs": [],
      "stateMutability": "nonpayable",
      "type": "function"
    }
  ],
  "bytecode": "0x60806040526040518060400160405280600d81526020017f4576656e742043726561746f72000000000000000000000000000000000000008152506001908051906020019061004f929190610067565b50600060025534801561006157600080fd5b5061016b565b8280546100739061010a565b90600052602060002090601f01602090048101928261009557600085556100dc565b82601f106100ae57805160ff19168380011785556100dc565b828001600101855582156100dc579182015b828111156100db5782518255916020019190600101906100c0565b5b5090506100e991906100ed565b5090565b5b808211156101065760008160009055506001016100ee565b5090565b6000600282049050600182168061012257607f821691505b602082108114156101365761013561013c565b5b50919050565b7f4e487b7100000000000000000000000000000000000000000000000000000000600052602260045260246000fd5b6135098061017a6000396000f3fe60806040523480156200001157600080fd5b5060043610620000525760003560e01c806306fdde0314620000575780630b791430146200007957806371be2e4a14620000af578063b3be7f0114620000d1575b600080fd5b62000061620000f1565b604051620000709190620005ac565b60405180910390f35b62000097600480360381019062000091919062000445565b62000187565b604051620000a691906200058f565b60405180910390f35b620000b9620001c7565b604051620000c89190620005d0565b60405180910390f35b620000ef6004803603810190620000e9919062000334565b620001cd565b005b60018054620001009062000713565b80601f01602080910402602001604051908101604052809291908181526020018280546200012e9062000713565b80156200017f5780601f1062000153576101008083540402835291602001916200017f565b820191906000526020600020905b8154815290600101906020018083116200016157829003601f168201915b505050505081565b600081815481106200019857600080fd5b906000526020600020016000915054906101000a900473ffffffffffffffffffffffffffffffffffffffff1681565b60025481565b60003388888888888888604051620001e5906200029d565b620001f8989796959493929190620004e5565b604051809103906000f08015801562000215573d6000803e3d6000fd5b5090506000819080600181540180825580915050600190039060005260206000200160009091909190916101000a81548173ffffffffffffffffffffffffffffffffffffffff021916908373ffffffffffffffffffffffffffffffffffffffff1602179055506002600081546200028c906200077f565b919050819055505050505050505050565b612c4e806200088683390190565b6000620002c2620002bc8462000616565b620005ed565b905082815260208101848484011115620002db57600080fd5b620002e8848285620006ce565b509392505050565b600082601f8301126200030257600080fd5b813562000314848260208601620002ab565b91505092915050565b6000813590506200032e816200086b565b92915050565b600080600080600080600060e0888a0312156200035057600080fd5b600088013567ffffffffffffffff8111156200036b57600080fd5b620003798a828b01620002f0565b975050602088013567ffffffffffffffff8111156200039757600080fd5b620003a58a828b01620002f0565b965050604088013567ffffffffffffffff811115620003c357600080fd5b620003d18a828b01620002f0565b955050606088013567ffffffffffffffff811115620003ef57600080fd5b620003fd8a828b01620002f0565b9450506080620004108a828b016200031d565b93505060a0620004238a828b016200031d565b92505060c0620004368a828b016200031d565b91505092959891949750929550565b6000602082840312156200045857600080fd5b600062000468848285016200031d565b91505092915050565b6200047c8162000668565b82525050565b6200048d81620006a6565b82525050565b6000620004a0826200064c565b620004ac818562000657565b9350620004be818560208601620006dd565b620004c9816200085a565b840191505092915050565b620004df816200069c565b82525050565b600061010082019050620004fd600083018b62000471565b818103602083015262000511818a62000493565b9050818103604083015262000527818962000493565b905081810360608301526200053d818862000493565b9050818103608083015262000553818762000493565b90506200056460a0830186620004d4565b6200057360c0830185620004d4565b6200058260e0830184620004d4565b9998505050505050505050565b6000602082019050620005a6600083018462000482565b92915050565b60006020820190508181036000830152620005c8818462000493565b905092915050565b6000602082019050620005e76000830184620004d4565b92915050565b6000620005f96200060c565b905062000607828262000749565b919050565b6000604051905090565b600067ffffffffffffffff8211156200063457620006336200082b565b5b6200063f826200085a565b9050602081019050919050565b600081519050919050565b600082825260208201905092915050565b600062000675826200067c565b9050919050565b600073ffffffffffffffffffffffffffffffffffffffff82169050919050565b6000819050919050565b6000620006b382620006ba565b9050919050565b6000620006c7826200067c565b9050919050565b82818337600083830152505050565b60005b83811015620006fd578082015181840152602081019050620006e0565b838111156200070d576000848401525b50505050565b600060028204905060018216806200072c57607f821691505b60208210811415620007435762000742620007fc565b5b50919050565b62000754826200085a565b810181811067ffffffffffffffff821117156200077657620007756200082b565b5b80604052505050565b60006200078c826200069c565b91507fffffffffffffffffffffffffffffffffffffffffffffffffffffffffffffffff821415620007c257620007c1620007cd565b5b600182019050919050565b7f4e487b7100000000000000000000000000000000000000000000000000000000600052601160045260246000fd5b7f4e487b7100000000000000000000000000000000000000000000000000000000600052602260045260246000fd5b7f4e487b7100000000000000000000000000000000000000000000000000000000600052604160045260246000fd5b6000601f19601f8301169050919050565b62000876816200069c565b81146200088257600080fd5b5056fe60806040523480156200001157600080fd5b5060405162002c4e38038062002c4e8339818101604052810190620000379190620002b5565b8181116200007c576040517f08c379a0000000000000000000000000000000000000000000000000000000008152600401620000739062000403565b60405180910390fd5b876000806101000a81548173ffffffffffffffffffffffffffffffffffffffff021916908373ffffffffffffffffffffffffffffffffffffffff1602179055508660049080519060200190620000d492919062000165565b508560059080519060200190620000ed92919062000165565b5084600690805190602001906200010692919062000165565b5083600790805190602001906200011f92919062000165565b5082600881905550814262000135919062000495565b600981905550804262000149919062000495565b600a819055506078600e819055505050505050505050620006f3565b828054620001739062000566565b90600052602060002090601f016020900481019282620001975760008555620001e3565b82601f10620001b257805160ff1916838001178555620001e3565b82800160010185558215620001e3579182015b82811115620001e2578251825591602001919060010190620001c5565b5b509050620001f29190620001f6565b5090565b5b8082111562000211576000816000905550600101620001f7565b5090565b60006200022c62000226846200044e565b62000425565b9050828152602081018484840111156200024557600080fd5b6200025284828562000530565b509392505050565b6000815190506200026b81620006bf565b92915050565b600082601f8301126200028357600080fd5b81516200029584826020860162000215565b91505092915050565b600081519050620002af81620006d9565b92915050565b600080600080600080600080610100898b031215620002d357600080fd5b6000620002e38b828c016200025a565b985050602089015167ffffffffffffffff8111156200030157600080fd5b6200030f8b828c0162000271565b975050604089015167ffffffffffffffff8111156200032d57600080fd5b6200033b8b828c0162000271565b965050606089015167ffffffffffffffff8111156200035957600080fd5b620003678b828c0162000271565b955050608089015167ffffffffffffffff8111156200038557600080fd5b620003938b828c0162000271565b94505060a0620003a68b828c016200029e565b93505060c0620003b98b828c016200029e565b92505060e0620003cc8b828c016200029e565b9150509295985092959890939650565b6000620003eb60248362000484565b9150620003f88262000670565b604082019050919050565b600060208201905081810360008301526200041e81620003dc565b9050919050565b60006200043162000444565b90506200043f82826200059c565b919050565b6000604051905090565b600067ffffffffffffffff8211156200046c576200046b62000630565b5b62000477826200065f565b9050602081019050919050565b600082825260208201905092915050565b6000620004a28262000526565b9150620004af8362000526565b9250827fffffffffffffffffffffffffffffffffffffffffffffffffffffffffffffffff03821115620004e757620004e6620005d2565b5b828201905092915050565b6000620004ff8262000506565b9050919050565b600073ffffffffffffffffffffffffffffffffffffffff82169050919050565b6000819050919050565b60005b838110156200055057808201518184015260208101905062000533565b8381111562000560576000848401525b50505050565b600060028204905060018216806200057f57607f821691505b6020821081141562000596576200059562000601565b5b50919050565b620005a7826200065f565b810181811067ffffffffffffffff82111715620005c957620005c862000630565b5b80604052505050565b7f4e487b7100000000000000000000000000000000000000000000000000000000600052601160045260246000fd5b7f4e487b7100000000000000000000000000000000000000000000000000000000600052602260045260246000fd5b7f4e487b7100000000000000000000000000000000000000000000000000000000600052604160045260246000fd5b6000601f19601f8301169050919050565b7f456e6420646174652073686f756c64206265206166746572207374617274206460008201527f6174652100000000000000000000000000000000000000000000000000000000602082015250565b620006ca81620004f2565b8114620006d657600080fd5b50565b620006e48162000526565b8114620006f057600080fd5b50565b61254b80620007036000396000f3fe60806040526004361061014f5760003560e01c8063516f279e116100b6578063bb5d40eb1161006f578063bb5d40eb14610448578063c24a0f8b14610473578063c950fed01461049e578063dfbeedbe146104c9578063f3ccaac014610506578063fb6c9537146105315761015e565b8063516f279e146103565780637284e41614610381578063855cf857146103ac5780638a56c5a4146103e9578063b2d5ae441461041a578063bb328a7d146104315761015e565b80631209b1f6116101085780631209b1f61461027757806321846c76146102a257806336723c70146102ac5780634a79d50c146102d75780634b9f5c98146103025780634e76a8461461032b5761015e565b806306cf41161461016357806309e69ede1461018e5780630a009097146101cb5780630b97bc86146101f65780630ed5a9331461022157806312065fe01461024c5761015e565b3661015e5761015c610548565b005b600080fd5b34801561016f57600080fd5b506101786108e4565b6040516101859190611f4d565b60405180910390f35b34801561019a57600080fd5b506101b560048036038101906101b0919061197c565b6108ea565b6040516101c29190611f4d565b60405180910390f35b3480156101d757600080fd5b506101e0610902565b6040516101ed9190611c4e565b60405180910390f35b34801561020257600080fd5b5061020b610926565b6040516102189190611f4d565b60405180910390f35b34801561022d57600080fd5b5061023661092c565b6040516102439190611ce5565b60405180910390f35b34801561025857600080fd5b5061026161093f565b60405161026e9190611f4d565b60405180910390f35b34801561028357600080fd5b5061028c610947565b6040516102999190611f4d565b60405180910390f35b6102aa610548565b005b3480156102b857600080fd5b506102c161094d565b6040516102ce9190611f4d565b60405180910390f35b3480156102e357600080fd5b506102ec610953565b6040516102f99190611d00565b60405180910390f35b34801561030e57600080fd5b50610329600480360381019061032491906119a5565b6109e1565b005b34801561033757600080fd5b50610340610db3565b60405161034d9190611f4d565b60405180910390f35b34801561036257600080fd5b5061036b610db9565b6040516103789190611d00565b60405180910390f35b34801561038d57600080fd5b50610396610e47565b6040516103a39190611d00565b60405180910390f35b3480156103b857600080fd5b506103d360048036038101906103ce91906119ce565b610ed5565b6040516103e09190611c33565b60405180910390f35b3480156103f557600080fd5b506103fe610f14565b6040516104119796959493929190611d22565b60405180910390f35b34801561042657600080fd5b5061042f611177565b005b34801561043d57600080fd5b5061044661136e565b005b34801561045457600080fd5b5061045d6116e5565b60405161046a9190611ce5565b60405180910390f35b34801561047f57600080fd5b506104886116f8565b6040516104959190611f4d565b60405180910390f35b3480156104aa57600080fd5b506104b36116fe565b6040516104c09190611f4d565b60405180910390f35b3480156104d557600080fd5b506104f060048036038101906104eb919061197c565b611704565b6040516104fd9190611ce5565b60405180910390f35b34801561051257600080fd5b5061051b611724565b6040516105289190611d00565b60405180910390f35b34801561053d57600080fd5b506105466117b2565b005b60008054906101000a900473ffffffffffffffffffffffffffffffffffffffff1673ffffffffffffffffffffffffffffffffffffffff163373ffffffffffffffffffffffffffffffffffffffff1614156105d7576040517f08c379a00000000000000000000000000000000000000000000000000000000081526004016105ce90611ead565b60405180910390fd5b600954421061061b576040517f08c379a000000000000000000000000000000000000000000000000000000000815260040161061290611e6d565b60405180910390fd5b60001515600f60019054906101000a900460ff16151514610671576040517f08c379a000000000000000000000000000000000000000000000000000000000815260040161066890611ecd565b60405180910390fd5b60085434146106b5576040517f08c379a00000000000000000000000000000000000000000000000000000000081526004016106ac90611eed565b60405180910390fd5b6000600160003373ffffffffffffffffffffffffffffffffffffffff1673ffffffffffffffffffffffffffffffffffffffff1681526020019081526020016000205414610737576040517f08c379a000000000000000000000000000000000000000000000000000000000815260040161072e90611e4d565b60405180910390fd5b6000600160003373ffffffffffffffffffffffffffffffffffffffff1673ffffffffffffffffffffffffffffffffffffffff1681526020019081526020016000205414156107985760036000815480929190610792906120ca565b91905055505b34600160003373ffffffffffffffffffffffffffffffffffffffff1673ffffffffffffffffffffffffffffffffffffffff16815260200190815260200160002060008282546107e79190611f84565b925050819055506000600b60003373ffffffffffffffffffffffffffffffffffffffff1673ffffffffffffffffffffffffffffffffffffffff16815260200190815260200160002060006101000a81548160ff0219169083151502179055506002339080600181540180825580915050600190039060005260206000200160009091909190916101000a81548173ffffffffffffffffffffffffffffffffffffffff021916908373ffffffffffffffffffffffffffffffffffffffff1602179055507f1720e81e46845ae710f44d650a195a850527ce67e17b6a080d547928dd63787833346040516108da929190611cbc565b60405180910390a1565b600e5481565b60016020528060005260406000206000915090505481565b60008054906101000a900473ffffffffffffffffffffffffffffffffffffffff1681565b60095481565b600f60019054906101000a900460ff1681565b600047905090565b60085481565b600c5481565b6005805461096090612098565b80601f016020809104026020016040519081016040528092919081815260200182805461098c90612098565b80156109d95780601f106109ae576101008083540402835291602001916109d9565b820191906000526020600020905b8154815290600101906020018083116109bc57829003601f168201915b505050505081565b60008054906101000a900473ffffffffffffffffffffffffffffffffffffffff1673ffffffffffffffffffffffffffffffffffffffff163373ffffffffffffffffffffffffffffffffffffffff161415610a70576040517f08c379a0000000000000000000000000000000000000000000000000000000008152600401610a6790611ead565b60405180910390fd5b60001515600f60019054906101000a900460ff16151514610ac6576040517f08c379a0000000000000000000000000000000000000000000000000000000008152600401610abd90611ecd565b60405180910390fd5b600a54421015610b0b576040517f08c379a0000000000000000000000000000000000000000000000000000000008152600401610b0290611e8d565b60405180910390fd5b600e54600a54610b1b9190611f84565b421115610b5d576040517f08c379a0000000000000000000000000000000000000000000000000000000008152600401610b5490611e0d565b60405180910390fd5b6000600160003373ffffffffffffffffffffffffffffffffffffffff1673ffffffffffffffffffffffffffffffffffffffff1681526020019081526020016000205411610bdf576040517f08c379a0000000000000000000000000000000000000000000000000000000008152600401610bd690611dad565b60405180910390fd5b60001515600b60003373ffffffffffffffffffffffffffffffffffffffff1673ffffffffffffffffffffffffffffffffffffffff16815260200190815260200160002060009054906101000a900460ff16151514610c72576040517f08c379a0000000000000000000000000000000000000000000000000000000008152600401610c6990611f0d565b60405180910390fd5b8015610c9557600c6000815480929190610c8b906120ca565b9190505550610cae565b600d6000815480929190610ca8906120ca565b91905055505b6001600b60003373ffffffffffffffffffffffffffffffffffffffff1673ffffffffffffffffffffffffffffffffffffffff16815260200190815260200160002060006101000a81548160ff02191690831515021790555060006002600354610d179190611fda565b905080600c541115610d43576001600f60006101000a81548160ff021916908315150217905550610d6a565b80600d541115610d69576000600f60006101000a81548160ff0219169083151502179055505b5b7fb61dcf0b5056a509fddc85ac795762002321d6d7454fada5b5a689660b6ee43a3383600c54600d54600354604051610da7959493929190611c69565b60405180910390a15050565b60035481565b60078054610dc690612098565b80601f0160208091040260200160405190810160405280929190818152602001828054610df290612098565b8015610e3f5780601f10610e1457610100808354040283529160200191610e3f565b820191906000526020600020905b815481529060010190602001808311610e2257829003601f168201915b505050505081565b60068054610e5490612098565b80601f0160208091040260200160405190810160405280929190818152602001828054610e8090612098565b8015610ecd5780601f10610ea257610100808354040283529160200191610ecd565b820191906000526020600020905b815481529060010190602001808311610eb057829003601f168201915b505050505081565b60028181548110610ee557600080fd5b906000526020600020016000915054906101000a900473ffffffffffffffffffffffffffffffffffffffff1681565b60608060608060008060006004600560066007600854600954600a54868054610f3c90612098565b80601f0160208091040260200160405190810160405280929190818152602001828054610f6890612098565b8015610fb55780601f10610f8a57610100808354040283529160200191610fb5565b820191906000526020600020905b815481529060010190602001808311610f9857829003601f168201915b50505050509650858054610fc890612098565b80601f0160208091040260200160405190810160405280929190818152602001828054610ff490612098565b80156110415780601f1061101657610100808354040283529160200191611041565b820191906000526020600020905b81548152906001019060200180831161102457829003601f168201915b5050505050955084805461105490612098565b80601f016020809104026020016040519081016040528092919081815260200182805461108090612098565b80156110cd5780601f106110a2576101008083540402835291602001916110cd565b820191906000526020600020905b8154815290600101906020018083116110b057829003601f168201915b505050505094508380546110e090612098565b80601f016020809104026020016040519081016040528092919081815260200182805461110c90612098565b80156111595780601f1061112e57610100808354040283529160200191611159565b820191906000526020600020905b81548152906001019060200180831161113c57829003601f168201915b50505050509350965096509650965096509650965090919293949596565b60008054906101000a900473ffffffffffffffffffffffffffffffffffffffff1673ffffffffffffffffffffffffffffffffffffffff163373ffffffffffffffffffffffffffffffffffffffff161415611206576040517f08c379a00000000000000000000000000000000000000000000000000000000081526004016111fd90611ead565b60405180910390fd5b60011515600f60019054906101000a900460ff1615151461125c576040517f08c379a000000000000000000000000000000000000000000000000000000000815260040161125390611e2d565b60405180910390fd5b60003390506000600160003373ffffffffffffffffffffffffffffffffffffffff1673ffffffffffffffffffffffffffffffffffffffff1681526020019081526020016000205490508173ffffffffffffffffffffffffffffffffffffffff166108fc829081150290604051600060405180830381858888f193505050501580156112eb573d6000803e3d6000fd5b506000600160003373ffffffffffffffffffffffffffffffffffffffff1673ffffffffffffffffffffffffffffffffffffffff168152602001908152602001600020819055507f9fb4a28623dda97d0dfe90e7dafd6babc5764f58be78dfe4b92a3224826323993382604051611362929190611cbc565b60405180910390a15050565b60008054906101000a900473ffffffffffffffffffffffffffffffffffffffff1673ffffffffffffffffffffffffffffffffffffffff163373ffffffffffffffffffffffffffffffffffffffff16146113fc576040517f08c379a00000000000000000000000000000000000000000000000000000000081526004016113f390611dcd565b60405180910390fd5b60001515600f60019054906101000a900460ff16151514611452576040517f08c379a000000000000000000000000000000000000000000000000000000000815260040161144990611ecd565b60405180910390fd5b60001515600f60009054906101000a900460ff161515141561150657600a544210156114b3576040517f08c379a00000000000000000000000000000000000000000000000000000000081526004016114aa90611e8d565b60405180910390fd5b600e54600a546114c39190611f84565b421015611505576040517f08c379a00000000000000000000000000000000000000000000000000000000081526004016114fc90611f2d565b60405180910390fd5b5b600060026003546115179190611fda565b905080600c541180611537575080600c54108015611536575080600d54105b5b1561169c57600033905060005b600354811015611608576000600160006002848154811061158e577f4e487b7100000000000000000000000000000000000000000000000000000000600052603260045260246000fd5b9060005260206000200160009054906101000a900473ffffffffffffffffffffffffffffffffffffffff1673ffffffffffffffffffffffffffffffffffffffff1673ffffffffffffffffffffffffffffffffffffffff1681526020019081526020016000208190555080611601906120ca565b9050611544565b50600061161361093f565b90508173ffffffffffffffffffffffffffffffffffffffff166108fc829081150290604051600060405180830381858888f1935050505015801561165b573d6000803e3d6000fd5b507fe4c78557eb970e2b7ecc9c948a4a476ba2e4743015afcf594e494d6aa7a13dfe338260405161168d929190611cbc565b60405180910390a150506116e2565b80600d5411156116e1576040517f08c379a00000000000000000000000000000000000000000000000000000000081526004016116d890611ded565b60405180910390fd5b5b50565b600f60009054906101000a900460ff1681565b600a5481565b600d5481565b600b6020528060005260406000206000915054906101000a900460ff1681565b6004805461173190612098565b80601f016020809104026020016040519081016040528092919081815260200182805461175d90612098565b80156117aa5780601f1061177f576101008083540402835291602001916117aa565b820191906000526020600020905b81548152906001019060200180831161178d57829003601f168201915b505050505081565b60008054906101000a900473ffffffffffffffffffffffffffffffffffffffff1673ffffffffffffffffffffffffffffffffffffffff163373ffffffffffffffffffffffffffffffffffffffff1614611840576040517f08c379a000000000000000000000000000000000000000000000000000000000815260040161183790611dcd565b60405180910390fd5b6009544210611884576040517f08c379a000000000000000000000000000000000000000000000000000000000815260040161187b90611e6d565b60405180910390fd5b60001515600f60019054906101000a900460ff161515146118da576040517f08c379a00000000000000000000000000000000000000000000000000000000081526004016118d190611ecd565b60405180910390fd5b6001600f60016101000a81548160ff0219169083151502179055507f5f45443afe1fccc9f6a28628ebbe56d69f0502ce0c0f4a6ad3f5a4140de1c8b6600f60019054906101000a900460ff166040516119339190611ce5565b60405180910390a1565b60008135905061194c816124d0565b92915050565b600081359050611961816124e7565b92915050565b600081359050611976816124fe565b92915050565b60006020828403121561198e57600080fd5b600061199c8482850161193d565b91505092915050565b6000602082840312156119b757600080fd5b60006119c584828501611952565b91505092915050565b6000602082840312156119e057600080fd5b60006119ee84828501611967565b91505092915050565b611a008161201d565b82525050565b611a0f8161200b565b82525050565b611a1e8161202f565b82525050565b6000611a2f82611f68565b611a398185611f73565b9350611a49818560208601612065565b611a52816121a0565b840191505092915050565b6000611a6a601983611f73565b9150611a75826121b1565b602082019050919050565b6000611a8d602283611f73565b9150611a98826121da565b604082019050919050565b6000611ab0603e83611f73565b9150611abb82612229565b604082019050919050565b6000611ad3602483611f73565b9150611ade82612278565b604082019050919050565b6000611af6602583611f73565b9150611b01826122c7565b604082019050919050565b6000611b19602483611f73565b9150611b2482612316565b604082019050919050565b6000611b3c601f83611f73565b9150611b4782612365565b602082019050919050565b6000611b5f601d83611f73565b9150611b6a8261238e565b602082019050919050565b6000611b82602483611f73565b9150611b8d826123b7565b604082019050919050565b6000611ba5601d83611f73565b9150611bb082612406565b602082019050919050565b6000611bc8601e83611f73565b9150611bd38261242f565b602082019050919050565b6000611beb601c83611f73565b9150611bf682612458565b602082019050919050565b6000611c0e602483611f73565b9150611c1982612481565b604082019050919050565b611c2d8161205b565b82525050565b6000602082019050611c486000830184611a06565b92915050565b6000602082019050611c6360008301846119f7565b92915050565b600060a082019050611c7e6000830188611a06565b611c8b6020830187611a15565b611c986040830186611c24565b611ca56060830185611c24565b611cb26080830184611c24565b9695505050505050565b6000604082019050611cd16000830185611a06565b611cde6020830184611c24565b9392505050565b6000602082019050611cfa6000830184611a15565b92915050565b60006020820190508181036000830152611d1a8184611a24565b905092915050565b600060e0820190508181036000830152611d3c818a611a24565b90508181036020830152611d508189611a24565b90508181036040830152611d648188611a24565b90508181036060830152611d788187611a24565b9050611d876080830186611c24565b611d9460a0830185611c24565b611da160c0830184611c24565b98975050505050505050565b60006020820190508181036000830152611dc681611a5d565b9050919050565b60006020820190508181036000830152611de681611a80565b9050919050565b60006020820190508181036000830152611e0681611aa3565b9050919050565b60006020820190508181036000830152611e2681611ac6565b9050919050565b60006020820190508181036000830152611e4681611ae9565b9050919050565b60006020820190508181036000830152611e6681611b0c565b9050919050565b60006020820190508181036000830152611e8681611b2f565b9050919050565b60006020820190508181036000830152611ea681611b52565b9050919050565b60006020820190508181036000830152611ec681611b75565b9050919050565b60006020820190508181036000830152611ee681611b98565b9050919050565b60006020820190508181036000830152611f0681611bbb565b9050919050565b60006020820190508181036000830152611f2681611bde565b9050919050565b60006020820190508181036000830152611f4681611c01565b9050919050565b6000602082019050611f626000830184611c24565b92915050565b600081519050919050565b600082825260208201905092915050565b6000611f8f8261205b565b9150611f9a8361205b565b9250827fffffffffffffffffffffffffffffffffffffffffffffffffffffffffffffffff03821115611fcf57611fce612113565b5b828201905092915050565b6000611fe58261205b565b9150611ff08361205b565b92508261200057611fff612142565b5b828204905092915050565b60006120168261203b565b9050919050565b60006120288261203b565b9050919050565b60008115159050919050565b600073ffffffffffffffffffffffffffffffffffffffff82169050919050565b6000819050919050565b60005b83811015612083578082015181840152602081019050612068565b83811115612092576000848401525b50505050565b600060028204905060018216806120b057607f821691505b602082108114156120c4576120c3612171565b5b50919050565b60006120d58261205b565b91507fffffffffffffffffffffffffffffffffffffffffffffffffffffffffffffffff82141561210857612107612113565b5b600182019050919050565b7f4e487b7100000000000000000000000000000000000000000000000000000000600052601160045260246000fd5b7f4e487b7100000000000000000000000000000000000000000000000000000000600052601260045260246000fd5b7f4e487b7100000000000000000000000000000000000000000000000000000000600052602260045260246000fd5b6000601f19601f8301169050919050565b7f54686973207573657220646f6573206e6f742065786973742100000000000000600082015250565b7f596f75206d75737420626520746865206576656e7420636f6f72696e6461746f60008201527f7221000000000000000000000000000000000000000000000000000000000000602082015250565b7f556e61626c6520746f2077697468647261772e205061727469636970616e747360008201527f206861766520766f74656420746865206576656e7420696e76616c69642e0000602082015250565b7f54686520766f74696e6720706572696f642068617320616c726561647920656e60008201527f6465642100000000000000000000000000000000000000000000000000000000602082015250565b7f54686973206576656e742068617320746f206569746865722062652063616e6360008201527f656c656421000000000000000000000000000000000000000000000000000000602082015250565b7f596f75206861766520616c72656164792070757263686173656420612074696360008201527f6b65742100000000000000000000000000000000000000000000000000000000602082015250565b7f54686973206576656e742068617320616c726561647920737461727465642100600082015250565b7f54686973206576656e7420686173206e6f7420656e6465642079657421000000600082015250565b7f596f752063616e6e6f7420626520746865206576656e7420636f6f7264696e6160008201527f746f722100000000000000000000000000000000000000000000000000000000602082015250565b7f54686973206576656e7420686173206265656e2063616e63656c656421000000600082015250565b7f596f75206d757374207061792074686520657861637420616d6f756e74210000600082015250565b7f5468697320757365722068617320616c726561647920766f7465642100000000600082015250565b7f54686520766f74696e6720706572696f6420686173206e6f7420656e6465642060008201527f7965742100000000000000000000000000000000000000000000000000000000602082015250565b6124d98161200b565b81146124e457600080fd5b50565b6124f08161202f565b81146124fb57600080fd5b50565b6125078161205b565b811461251257600080fd5b5056fea2646970667358221220af4b73a1baada5d7b6fcbfa3e99d14de593b2ed1e13f90dad90f0efd9ceb897a64736f6c63430008040033a2646970667358221220be901caf5c15b23eac3e7003fe351ca6ef6387f8c95f5783d8277126c20e4a1164736f6c63430008040033",
  "immutableReferences": {},
  "source": "//SPDX-License-Identifier: GPL-3.0\r\n \r\npragma solidity >=0.5.0 <0.9.0;\r\n\r\ncontract EventCreator{\r\n    Event[] public events;\r\n    string public name = \"Event Creator\";\r\n    uint public eventCount = 0;\r\n\r\n    function createEvent(string memory _image, string memory _title, string memory _description, string memory _location, uint _ticketPrice, uint _startDateOffset, uint _endDateOffset) public {\r\n        Event newEvent = new Event(msg.sender, _image, _title, _description, _location, _ticketPrice, _startDateOffset, _endDateOffset);\r\n        events.push(newEvent);\r\n        ++eventCount;\r\n    }\r\n}\r\n\r\ncontract Event{\r\n    \r\n    /* State Variables */\r\n    address payable public coordinator;\r\n    \r\n    mapping(address => uint) public participants;\r\n    address[] public participantsAddr;\r\n    uint public numParticipants;\r\n    \r\n    string public image;\r\n    string public title;\r\n    string public description;\r\n    string public location;\r\n    uint public ticketPrice;\r\n    uint public startDate;\r\n    uint public endDate;\r\n\r\n    mapping(address => bool) public participantVote;\r\n    uint public numOfValidVotes;\r\n    uint public numOfInvalidVotes;\r\n    uint public votingPeriodOffset;\r\n    \r\n    bool public isValid;\r\n    bool public isCanceled;\r\n    \r\n    /* Constructor */\r\n    constructor(address eoa, string memory _image, string memory _title, string memory _description, string memory _location, uint _ticketPrice, uint _startDateOffset, uint _endDateOffset){\r\n        require(_endDateOffset > _startDateOffset, \"End date should be after start date!\"); \r\n        coordinator = payable(eoa);\r\n        image = _image;\r\n        title = _title;\r\n        description = _description;\r\n        location = _location;\r\n        ticketPrice = _ticketPrice;\r\n        startDate = block.timestamp + _startDateOffset;\r\n        endDate = block.timestamp + _endDateOffset;\r\n        votingPeriodOffset = 120;\r\n    }\r\n    \r\n    /* Events */\r\n    event PurchaseTicketEvent(address _sender, uint _value);\r\n    event GetRefundEvent(address _sender, uint _value);\r\n    event VoteEvent(address _sender, bool _isValidEvent, uint _numOfValidVotes, uint _numOfInvalidVotes, uint _numParticipants);\r\n    event GetPaymentEvent(address _sender, uint _value);\r\n    event CancelEvent(bool _isCanceled);\r\n\r\n\r\n    /* Functions */\r\n    // Participants ticket purchase\r\n    receive() payable external{\r\n        purchaseTicket();\r\n    }\r\n\r\n    function purchaseTicket() public payable notCoordinator notRunning notCanceled {\r\n        require(msg.value == ticketPrice, \"You must pay the exact amount!\");\r\n        require(participants[msg.sender] == 0, \"You have already purchased a ticket!\");\r\n        \r\n        if(participants[msg.sender] == 0){\r\n            numParticipants++;\r\n        }\r\n        \r\n        participants[msg.sender] += msg.value;\r\n        participantVote[msg.sender] = false;\r\n        participantsAddr.push(msg.sender);\r\n\r\n        emit PurchaseTicketEvent(msg.sender, msg.value);\r\n    }\r\n    \r\n    // Participants refund option\r\n    function getRefund() public notCoordinator {\r\n        require(isCanceled == true, \"This event has to either be canceled!\");\r\n\r\n        address payable recipient = payable(msg.sender);\r\n        uint value = participants[msg.sender];\r\n        recipient.transfer(value);\r\n        participants[msg.sender] = 0;\r\n\r\n        emit GetRefundEvent(msg.sender, value);\r\n    }\r\n\r\n    // Particpants vote on event after end date\r\n    function vote(bool isValidEvent) public notCoordinator notCanceled {\r\n        require(block.timestamp >= endDate, \"This event has not ended yet!\");\r\n        require(block.timestamp <= endDate + votingPeriodOffset, \"The voting period has already ended!\");\r\n        require(participants[msg.sender] > 0, \"This user does not exist!\");\r\n        require(participantVote[msg.sender] == false, \"This user has already voted!\");\r\n\r\n        // Update vote counter\r\n        if(isValidEvent){\r\n          numOfValidVotes++;\r\n        } else {\r\n          numOfInvalidVotes++;\r\n        }\r\n        participantVote[msg.sender] = true;\r\n\r\n        // Update event state when all votes are counted\r\n        uint halfOfParticipants = numParticipants / 2;\r\n         if (numOfValidVotes > halfOfParticipants){\r\n            isValid = true;\r\n         } else if(numOfInvalidVotes > halfOfParticipants){\r\n            isValid = false;\r\n         }\r\n\r\n         emit VoteEvent(msg.sender, isValidEvent, numOfValidVotes, numOfInvalidVotes, numParticipants);\r\n    }\r\n    \r\n    // Coordinator transfer payment option\r\n    function getPayment() public isCoordinator notCanceled {\r\n        // skip enough voters have voted valid\r\n        if (isValid == false){\r\n            require(block.timestamp >= endDate, \"This event has not ended yet!\");\r\n            require(block.timestamp >= endDate + votingPeriodOffset, \"The voting period has not ended yet!\");\r\n        }\r\n        \r\n        uint halfOfParticipants = numParticipants / 2;\r\n\r\n        // more than 50% of voters vote valid OR not enough votes for either option\r\n        if(numOfValidVotes > halfOfParticipants || (numOfValidVotes < halfOfParticipants && numOfInvalidVotes < halfOfParticipants)){\r\n          address payable recipient = payable(msg.sender);\r\n          for(uint i = 0; i < numParticipants; ++i){\r\n              // reset partcipant balance to 0\r\n              participants[participantsAddr[i]] = 0;\r\n          }\r\n          uint total = getBalance();\r\n          recipient.transfer(total);\r\n          emit GetPaymentEvent(msg.sender, total);\r\n        } \r\n        // more than 50% of voters vote invalid\r\n        else if(numOfInvalidVotes > halfOfParticipants){\r\n          // unable to withdraw, show message or something \r\n          revert(\"Unable to withdraw. Participants have voted the event invalid.\");\r\n        }\r\n    }\r\n    \r\n    // Coordinator event cancellation\r\n    function cancelEvent() public isCoordinator notRunning notCanceled {\r\n        isCanceled = true;\r\n        emit CancelEvent(isCanceled);\r\n    }\r\n    \r\n    // helper - get contract's current balance\r\n    function getBalance() public view returns(uint){\r\n        return address(this).balance;\r\n    }\r\n\r\n    // helper - get event details \r\n    function returnEventDetails() public view returns(string memory _image, string memory _title, string memory _description, string memory _location, uint _ticketPrice, uint _startDateOffset, uint _endDateOffset){\r\n        return (image, title, description, location, ticketPrice, startDate, endDate);\r\n    }\r\n    \r\n    /* Function Modifiers */\r\n    modifier isCoordinator(){\r\n        require(msg.sender == coordinator, \"You must be the event coorindator!\");\r\n        _;\r\n    }\r\n    \r\n    modifier notCoordinator(){\r\n        require(msg.sender != coordinator, \"You cannot be the event coordinator!\");\r\n        _;\r\n    }\r\n    \r\n    modifier notRunning() {\r\n        require(block.timestamp < startDate, \"This event has already started!\");\r\n        _;\r\n    }\r\n    \r\n    modifier notCanceled() {\r\n        require(isCanceled == false, \"This event has been canceled!\");\r\n        _;\r\n    }\r\n}",
  "sourcePath": "C:\\Users\\Jonathan\\Documents\\Projects\\Coding\\decentrevent\\contracts\\EventCreator.sol",
  "compiler": {
    "name": "solc",
    "version": "0.8.4+commit.c7e474f2.Emscripten.clang"
  },
  "schemaVersion": "3.4.3",
  "updatedAt": "2021-08-26T02:25:05.601Z",
  "networkType": "ethereum",
  "devdoc": {
    "kind": "dev",
    "methods": {},
    "version": 1
  },
  "userdoc": {
    "kind": "user",
    "methods": {},
    "version": 1
  }
}